S0150000434D522D44617368626F6172642E7372656378
S11300000C943E000C9453000C9453000C94530035
S11300100C9453000C9453000C9453000C94530010
S11300200C9453000C9453000C9453000C94530000
S11300300C9453000C9453000C9453000C945300F0
S11300400C9453000C9453000C9453000C945300E0
S11300500C9453000C9453000C9453000C945300D0
S11300600C9453000C9453000C9453000C945300C0
S11300700C9453000C9453000C94530011241FBE91
S1130080CFEFD0E1DEBFCDBF11E0A0E0B1E0E2E709
S1130090F3E002C005900D92A036B107D9F70E9493
S11300A055000C94B7010C9400000E947F0000E0FE
S11300B023E040E061E080E00E948C01F89428E0B5
S11300C043E060E071E083E00E942E0181E00E9441
S11300D098002FE788E391E0215080409040E1F7B9
S11300E000C0000080E00E9498002FE788E391E0C0
S11300F0215080409040E1F700C00000E0CF8AEB3F
S113010084B98AE487B91AB815B818B81BB8089521
S1130110882321F02B9A2C982D9808952B980895D4
S1130120882321F02B982C9A2D9808952C980895C3
S1130130882321F02B982C982D9A08952D980895B2
S113014080528B3530F4E82FF0E0EC5FFE4F808175
S1130150089580E00895982F82FF04C061FB8827EA
S113016080F901C080E093FF06C060FD826061FDFC
S1130170846062FD886094FF04C060FD806162FD5C
S1130180806297FF06C061FD806462FF02C08068E0
S113019008950895982F82FF06C0862F817062FF0C
S11301A003C0826001C080E094FF02C061FD8460EE
S11301B097FF02C060FD886091FF04C061FD80610B
S11301C062FD806290FF02C061FD806495FF04C0FF
S11301D061FF02C0806808950895982F81FF03C0CD
S11301E0862F817001C080E090FF04C060FD8260B2
S11301F062FD846096FF06C060FD886061FD8061D9
S113020062FD806295FF06C060FD806462FF02C0EB
S11302108068089508950F931F93CF93DF93C62F9B
S11302200E94A000D82F6C2F0E94ED00082F6C2F85
S11302308D2F0E94CA00182F6C2F8D2F0E94AB00A7
S1130240C82F802F0E94B101812F0E94B1018C2FF1
S1130250DF91CF911F910F910C94B101FF920F93F5
S11302601F93CF93DF93082FEB01142FF22E8230CC
S113027041F0833051F0813059F481E00E948800CC
S113028007C081E00E94900003C081E00E949800B2
S11302908F2D0E94B1018881612F8A3029F480E278
S11302A00E940B01612F06C00E940B018981612FFE
S11302B08A3029F480E20E940B01612F06C00E945B
S11302C00B018A81612F8A3009F480E20E940B01BC
S11302D0023061F0033091F00130C1F480E0DF912D
S11302E0CF911F910F91FF900C94880080E0DF91D3
S11302F0CF911F910F91FF900C94900080E0DF91BB
S1130300CF911F910F91FF900C949800DF91CF91A2
S11303101F910F91FF9008950F9394B1926894B92F
S11303202098289A23702064437094E0499FA00188
S11303301124242BA62FA170B0E094E0AA0FBB1FB8
S11303409A95E1F72A2BE82FE170F0E035E0EE0F03
S1130350FF1F3A95E1F72E2B2CBD01700DBD0F91B7
S113036008958EBD0DB407FEFDCF8EB50895F894A3
S1050370FFCFB9
S1130372484F45000000000000000000000000009B
S1130382000800007E306D79335B5F707F7B000074
S11303920000000000777F4E7E4F475F37063C37F0
S11303A20E00157E6773055B0F3E3E00373B6D0002
S11303B20000000800771F0D3D4F477B17043837B4
S11303C20600151D6773055B0F1C1C00373B6D008F
S9030000FC
