S0150000434D522D44617368626F6172642E7372656378
S11300000C943E000C9453000C9453000C94530035
S11300100C9453000C9453000C9453000C94530010
S11300200C9453000C9453000C9453000C94530000
S11300300C9453000C9453000C9453000C945300F0
S11300400C9453000C9453000C9453000C945300E0
S11300500C9453000C9453000C9453000C945300D0
S11300600C9453000C9453000C9453000C945300C0
S11300700C9453000C9453000C94530011241FBE91
S1130080CFEFD0E1DEBFCDBF11E0A0E0B1E0E6EEFE
S1130090F5E002C005900D92A238B107D9F70E948D
S11300A055000C94F1020C9400000E94DF0000E063
S11300B023E040E061E080E00E949E0222E041E013
S11300C06BE770E081E00E94FB012FE78AE196E094
S11300D0215080409040E1F700C0000028E044E057
S11300E060E071E081E00E9440022FE78AE196E03F
S11300F0215080409040E1F700C0000028E042E039
S113010064E071E081E00E9440022FE78AE196E01A
S1130110215080409040E1F700C0000028E042E018
S113012068E071E081E00E9440022FE78AE196E0F6
S1130130215080409040E1F700C0000028E044E0F6
S11301406CE071E081E00E9440022FE78AE196E0D2
S1130150215080409040E1F700C0000028E041E0D9
S113016060E171E081E00E9440022FE78AE196E0BD
S1130170215080409040E1F700C0000028E047E0B3
S113018064E171E081E00E9440022FE78AE196E099
S1130190215080409040E1F700C0000028E046E094
S11301A068E171E081E00E9440022FE78AE196E075
S11301B0215080409040E1F700C000007FCF8AEBDF
S11301C084B98AE487B91AB815B818B81BB8089561
S11301D0882321F02B982C9A2D9A08952B9A089510
S11301E0882321F02B9A2C982D9A08952C9A0895FF
S11301F0882321F02B9A2C9A2D9808952D9A0895EE
S113020080528B3530F4E82FF0E0E45EFE4F8081BD
S1130210089580E00895982F82FF04C061FB882729
S113022080F901C080E093FF06C060FD826061FD3B
S1130230846062FD886094FF04C060FD806162FD9B
S1130240806297FF06C061FD806462FF02C080681F
S113025008950895982F82FF06C0862F817062FF4B
S113026003C0826001C080E094FF02C061FD84602D
S113027097FF02C060FD886091FF04C061FD80614A
S113028062FD806290FF02C061FD806495FF04C03E
S113029061FF02C0806808950895982F81FF03C00C
S11302A0862F817001C080E090FF04C060FD8260F1
S11302B062FD846096FF06C060FD886061FD806118
S11302C062FD806295FF06C060FD806462FF02C02B
S11302D08068089508950F931F93CF93DF93D62FCB
S11302E08A3030F4E82FF0E0E958FE4FC08101C0B5
S11302F0C0E06D2F8C2F0E944D01082F6D2F8C2F85
S11303000E942A01182F6D2F8C2F0E940B01C82FD9
S1130310802F0E94C302812F0E94C3028C2FDF9181
S1130320CF911F910F910C94C3020F931F93CF93FE
S1130330DF93C62F0E940001D82F6C2F0E944D011D
S1130340082F6C2F8D2F0E942A01182F6C2F8D2FB0
S11303500E940B01C82F802F0E94C302812F0E948C
S1130360C3028C2FDF91CF911F910F910C94C30284
S11303700F931F93CF93DF93C62F883E23E09207FA
S11303804CF49C0197FF03C0319521953109E22F6C
S1130390432F02C0E7EE43E08E2F942F64E670E013
S11303A00E94C902F62F2AE030E08E2F942FB90163
S11303B00E94C902082FCB01B9010E94C902182F5B
S11303C0FF2319F06C2FDC2F04C0811111C060E0F1
S11303D0D0E08F2F0E946B016D2F812F0E946B0143
S11303E06C2F802FDF91CF911F910F910C946B0193
S11303F0DC2F60E0EECFFF920F931F93CF93DF9338
S1130400182FEB01042FF22E823041F0833051F08B
S1130410813059F481E00E94E80007C081E00E9425
S1130420F00003C081E00E94F8008F2D0E94C302F7
S1130430602FCE010E94B801123061F0133091F0A8
S11304401130C1F480E0DF91CF911F910F91FF90A3
S11304500C94E80080E0DF91CF911F910F91FF9001
S11304600C94F00080E0DF91CF911F910F91FF90E9
S11304700C94F800DF91CF911F910F91FF90089594
S1130480FF920F931F93CF93DF93082FEB01142F49
S1130490F22E823041F0833051F0813059F481E002
S11304A00E94E80007C081E00E94F00003C081E0E0
S11304B00E94F8008F2D0E94C3028881612F8A3028
S11304C029F480E20E949501612F06C00E949501E3
S11304D08981612F8A3029F480E20E949501612F7D
S11304E006C00E9495018A81612F8A3009F480E256
S11304F00E949501023061F0033091F00130C1F4A3
S113050080E0DF91CF911F910F91FF900C94E80050
S113051080E0DF91CF911F910F91FF900C94F00038
S113052080E0DF91CF911F910F91FF900C94F80020
S1130530DF91CF911F910F91FF9008950F9394B184
S1130540926894B92098289A23702064437094E0A8
S1130550499FA0011124242BA62FA170B0E094E0A0
S1130560AA0FBB1F9A95E1F72A2BE82FE170F0E060
S113057035E0EE0FFF1F3A95E1F72E2B2CBD0170ED
S11305800DBD0F9108958EBD0DB407FEFDCF8EB540
S1130590089597FB072E16F4009407D077FD09D031
S11305A00E94DD0207FC05D03EF4909581959F4F93
S11305B00895709561957F4F0895AA1BBB1B51E167
S11305C007C0AA1FBB1FA617B70710F0A61BB70BBF
S11305D0881F991F5A95A9F780959095BC01CD0164
S10905E00895F894FFCF1A
S11305E64572720041434300456E6400686F7400AF
S11305F6636F6C0072746400626F62000000000036
S11306060000000000000000000800007E306D7944
S1130616335B5F707F7B00000000000000777F4E35
S11306267E4F475F37063C370E00157E6773055BC2
S11306360F3E3E00373B6D000000000800771F0D9B
S11306463D4F477B170438370600151D6773055B56
S11306560F1C1C00373B6D7E306D79335B5F707FFA
S10506667B0013
S9030000FC
