S0150000434D522D44617368626F6172642E7372656378
S11300000C943E000C9448000C9448000C94480056
S11300100C9448000C9448000C9448000C9448003C
S11300200C9448000C9448000C9448000C9448002C
S11300300C9448000C9448000C9448000C9448001C
S11300400C9448000C9448000C9448000C9448000C
S11300500C9448000C9448000C9448000C944800FC
S11300600C9448000C9448000C9448000C944800EC
S11300700C9448000C9448000C94480011241FBEB2
S1130080CFEFD0E1DEBFCDBF0E944A000C945600F2
S11300900C9400000E944D00FFCF8AEB84B98AE4DF
S11300A087B91AB815B818B81BB80895F894FFCFD3
S9030000FC
