S0150000434D522D44617368626F6172642E7372656378
S11300000C9448000C945D000C945D000C945D000D
S11300100C945D000C945D000C945D000C945D00E8
S11300200C945D000C945D000C945D000C945D00D8
S11300300C945D000C945D000C945D000C945D00C8
S11300400C945D000C945D000C945D000C945D00B8
S11300500C945D000C945D000C945D000C945D00A8
S11300600C945D000C945D000C945D000C945D0098
S11300700C945D000C945D000C945D00A100B5002F
S1130080A300A500A700A900AB00AD00AF00B1001C
S113009011241FBECFEFD0E1DEBFCDBF11E0A0E041
S11300A0B1E0E8E1F3E002C005900D92A030B107A1
S11300B0D9F70E945F000C948A010C9400000E94FE
S11300C0870000E023E040E061E080E00E94570107
S11300D081E00E94900080E00E947E0165E086E05D
S11300E00E94330163E087E00E94330167E089E006
S11300F00E94330180E00E9490002FE38DE093E0A2
S1130100215080409040E1F700C00000E1CF8AEB2D
S113011084B98AE487B91AB815B818B81BB8089511
S1130120882321F02B982C9A2D9A08952B9A0895C0
S113013090E08A309105B8F4FC01E25CFF4F0C9426
S113014084018EE708958DE6089589E7089583E391
S113015008958BE508958FE5089580E708958FE766
S113016008958BE7089580E0089580E30895982F1B
S113017082FF04C061FB882780F901C080E093FFFF
S113018007C060FF14C0826012C0846012C088601F
S113019094FF05C060FF10C080610EC08062992387
S11301A084F461FF0CC080640AC08068089561FD16
S11301B0ECCF62FDECCFECCF62FDF0CFF0CF62FD6F
S11301C0F4CF0895982F82FF06C0862F817062FFB6
S11301D003C0826001C080E094FF02C061FD8460BE
S11301E0992314F460FD886091FF05C061FF0DC080
S11301F080610BC0806290FF02C061FD806495FF46
S113020007C061FF05C08068089562FDF3CFF3CF96
S11302100895982F81FF03C0862F817001C080E06C
S113022090FF05C060FF14C0826012C0846096FF16
S113023007C060FF10C088600EC080610EC080627D
S113024095FF10C060FF0CC080640AC080680895E8
S113025062FDECCFECCF61FDF0CF62FDF0CFF0CFCB
S113026062FDF4CF08950F931F93CF93DF93D62F9E
S11302700E949800C82F6D2F0E940901082F6D2F2E
S11302808C2F0E94E200182F6D2F8C2F0E94B70034
S1130290C82F802F0E947E01812F0E947E018C2F07
S11302A00E947E01DF91CF911F910F9108950F93CA
S11302B094B1926894B92098289A2370206443706A
S11302C0440F440F242BA62FA170B0E0A295B29541
S11302D0B07FBA27A07FBA27A22BE82FE170F0E005
S11302E0EE0FFF1FE295F295F07FFE27E07FFE27D9
S11302F0AE2BACBD01700DBD0F9108958EBD0DB434
S113030007FEFDCF8EB50895EE0FFF1F0590F49103
S10B0310E02D0994F894FFCFDD
S9030000FC
